{
  "contractName": "Land",
  "abi": [
    {
      "inputs": [
        {
          "internalType": "string",
          "name": "_name",
          "type": "string"
        },
        {
          "internalType": "string",
          "name": "_symbol",
          "type": "string"
        },
        {
          "internalType": "uint256",
          "name": "_cost",
          "type": "uint256"
        }
      ],
      "stateMutability": "nonpayable",
      "type": "constructor"
    },
    {
      "anonymous": false,
      "inputs": [
        {
          "indexed": true,
          "internalType": "address",
          "name": "owner",
          "type": "address"
        },
        {
          "indexed": true,
          "internalType": "address",
          "name": "approved",
          "type": "address"
        },
        {
          "indexed": true,
          "internalType": "uint256",
          "name": "tokenId",
          "type": "uint256"
        }
      ],
      "name": "Approval",
      "type": "event"
    },
    {
      "anonymous": false,
      "inputs": [
        {
          "indexed": true,
          "internalType": "address",
          "name": "owner",
          "type": "address"
        },
        {
          "indexed": true,
          "internalType": "address",
          "name": "operator",
          "type": "address"
        },
        {
          "indexed": false,
          "internalType": "bool",
          "name": "approved",
          "type": "bool"
        }
      ],
      "name": "ApprovalForAll",
      "type": "event"
    },
    {
      "anonymous": false,
      "inputs": [
        {
          "indexed": true,
          "internalType": "address",
          "name": "from",
          "type": "address"
        },
        {
          "indexed": true,
          "internalType": "address",
          "name": "to",
          "type": "address"
        },
        {
          "indexed": true,
          "internalType": "uint256",
          "name": "tokenId",
          "type": "uint256"
        }
      ],
      "name": "Transfer",
      "type": "event"
    },
    {
      "inputs": [
        {
          "internalType": "address",
          "name": "to",
          "type": "address"
        },
        {
          "internalType": "uint256",
          "name": "tokenId",
          "type": "uint256"
        }
      ],
      "name": "approve",
      "outputs": [],
      "stateMutability": "nonpayable",
      "type": "function"
    },
    {
      "inputs": [
        {
          "internalType": "address",
          "name": "owner",
          "type": "address"
        }
      ],
      "name": "balanceOf",
      "outputs": [
        {
          "internalType": "uint256",
          "name": "",
          "type": "uint256"
        }
      ],
      "stateMutability": "view",
      "type": "function",
      "constant": true
    },
    {
      "inputs": [
        {
          "internalType": "uint256",
          "name": "",
          "type": "uint256"
        }
      ],
      "name": "buildings",
      "outputs": [
        {
          "internalType": "string",
          "name": "name",
          "type": "string"
        },
        {
          "internalType": "address",
          "name": "owner",
          "type": "address"
        },
        {
          "internalType": "int256",
          "name": "posX",
          "type": "int256"
        },
        {
          "internalType": "int256",
          "name": "posY",
          "type": "int256"
        },
        {
          "internalType": "int256",
          "name": "posZ",
          "type": "int256"
        },
        {
          "internalType": "uint256",
          "name": "sizeX",
          "type": "uint256"
        },
        {
          "internalType": "uint256",
          "name": "sizeY",
          "type": "uint256"
        },
        {
          "internalType": "uint256",
          "name": "sizeZ",
          "type": "uint256"
        }
      ],
      "stateMutability": "view",
      "type": "function",
      "constant": true
    },
    {
      "inputs": [],
      "name": "cost",
      "outputs": [
        {
          "internalType": "uint256",
          "name": "",
          "type": "uint256"
        }
      ],
      "stateMutability": "view",
      "type": "function",
      "constant": true
    },
    {
      "inputs": [
        {
          "internalType": "uint256",
          "name": "tokenId",
          "type": "uint256"
        }
      ],
      "name": "getApproved",
      "outputs": [
        {
          "internalType": "address",
          "name": "",
          "type": "address"
        }
      ],
      "stateMutability": "view",
      "type": "function",
      "constant": true
    },
    {
      "inputs": [
        {
          "internalType": "address",
          "name": "owner",
          "type": "address"
        },
        {
          "internalType": "address",
          "name": "operator",
          "type": "address"
        }
      ],
      "name": "isApprovedForAll",
      "outputs": [
        {
          "internalType": "bool",
          "name": "",
          "type": "bool"
        }
      ],
      "stateMutability": "view",
      "type": "function",
      "constant": true
    },
    {
      "inputs": [],
      "name": "maxSupply",
      "outputs": [
        {
          "internalType": "uint256",
          "name": "",
          "type": "uint256"
        }
      ],
      "stateMutability": "view",
      "type": "function",
      "constant": true
    },
    {
      "inputs": [],
      "name": "name",
      "outputs": [
        {
          "internalType": "string",
          "name": "",
          "type": "string"
        }
      ],
      "stateMutability": "view",
      "type": "function",
      "constant": true
    },
    {
      "inputs": [
        {
          "internalType": "uint256",
          "name": "tokenId",
          "type": "uint256"
        }
      ],
      "name": "ownerOf",
      "outputs": [
        {
          "internalType": "address",
          "name": "",
          "type": "address"
        }
      ],
      "stateMutability": "view",
      "type": "function",
      "constant": true
    },
    {
      "inputs": [
        {
          "internalType": "address",
          "name": "operator",
          "type": "address"
        },
        {
          "internalType": "bool",
          "name": "approved",
          "type": "bool"
        }
      ],
      "name": "setApprovalForAll",
      "outputs": [],
      "stateMutability": "nonpayable",
      "type": "function"
    },
    {
      "inputs": [
        {
          "internalType": "bytes4",
          "name": "interfaceId",
          "type": "bytes4"
        }
      ],
      "name": "supportsInterface",
      "outputs": [
        {
          "internalType": "bool",
          "name": "",
          "type": "bool"
        }
      ],
      "stateMutability": "view",
      "type": "function",
      "constant": true
    },
    {
      "inputs": [],
      "name": "symbol",
      "outputs": [
        {
          "internalType": "string",
          "name": "",
          "type": "string"
        }
      ],
      "stateMutability": "view",
      "type": "function",
      "constant": true
    },
    {
      "inputs": [
        {
          "internalType": "uint256",
          "name": "tokenId",
          "type": "uint256"
        }
      ],
      "name": "tokenURI",
      "outputs": [
        {
          "internalType": "string",
          "name": "",
          "type": "string"
        }
      ],
      "stateMutability": "view",
      "type": "function",
      "constant": true
    },
    {
      "inputs": [],
      "name": "totalSupply",
      "outputs": [
        {
          "internalType": "uint256",
          "name": "",
          "type": "uint256"
        }
      ],
      "stateMutability": "view",
      "type": "function",
      "constant": true
    },
    {
      "inputs": [
        {
          "internalType": "uint256",
          "name": "_id",
          "type": "uint256"
        }
      ],
      "name": "mint",
      "outputs": [],
      "stateMutability": "payable",
      "type": "function",
      "payable": true
    },
    {
      "inputs": [
        {
          "internalType": "address",
          "name": "from",
          "type": "address"
        },
        {
          "internalType": "address",
          "name": "to",
          "type": "address"
        },
        {
          "internalType": "uint256",
          "name": "tokenId",
          "type": "uint256"
        }
      ],
      "name": "transferFrom",
      "outputs": [],
      "stateMutability": "nonpayable",
      "type": "function"
    },
    {
      "inputs": [
        {
          "internalType": "address",
          "name": "from",
          "type": "address"
        },
        {
          "internalType": "address",
          "name": "to",
          "type": "address"
        },
        {
          "internalType": "uint256",
          "name": "tokenId",
          "type": "uint256"
        }
      ],
      "name": "safeTransferFrom",
      "outputs": [],
      "stateMutability": "nonpayable",
      "type": "function"
    },
    {
      "inputs": [
        {
          "internalType": "address",
          "name": "from",
          "type": "address"
        },
        {
          "internalType": "address",
          "name": "to",
          "type": "address"
        },
        {
          "internalType": "uint256",
          "name": "tokenId",
          "type": "uint256"
        },
        {
          "internalType": "bytes",
          "name": "_data",
          "type": "bytes"
        }
      ],
      "name": "safeTransferFrom",
      "outputs": [],
      "stateMutability": "nonpayable",
      "type": "function"
    },
    {
      "inputs": [],
      "name": "getBuildings",
      "outputs": [
        {
          "components": [
            {
              "internalType": "string",
              "name": "name",
              "type": "string"
            },
            {
              "internalType": "address",
              "name": "owner",
              "type": "address"
            },
            {
              "internalType": "int256",
              "name": "posX",
              "type": "int256"
            },
            {
              "internalType": "int256",
              "name": "posY",
              "type": "int256"
            },
            {
              "internalType": "int256",
              "name": "posZ",
              "type": "int256"
            },
            {
              "internalType": "uint256",
              "name": "sizeX",
              "type": "uint256"
            },
            {
              "internalType": "uint256",
              "name": "sizeY",
              "type": "uint256"
            },
            {
              "internalType": "uint256",
              "name": "sizeZ",
              "type": "uint256"
            }
          ],
          "internalType": "struct Land.Building[]",
          "name": "",
          "type": "tuple[]"
        }
      ],
      "stateMutability": "view",
      "type": "function",
      "constant": true
    },
    {
      "inputs": [
        {
          "internalType": "uint56",
          "name": "_id",
          "type": "uint56"
        }
      ],
      "name": "getBuilding",
      "outputs": [
        {
          "components": [
            {
              "internalType": "string",
              "name": "name",
              "type": "string"
            },
            {
              "internalType": "address",
              "name": "owner",
              "type": "address"
            },
            {
              "internalType": "int256",
              "name": "posX",
              "type": "int256"
            },
            {
              "internalType": "int256",
              "name": "posY",
              "type": "int256"
            },
            {
              "internalType": "int256",
              "name": "posZ",
              "type": "int256"
            },
            {
              "internalType": "uint256",
              "name": "sizeX",
              "type": "uint256"
            },
            {
              "internalType": "uint256",
              "name": "sizeY",
              "type": "uint256"
            },
            {
              "internalType": "uint256",
              "name": "sizeZ",
              "type": "uint256"
            }
          ],
          "internalType": "struct Land.Building",
          "name": "",
          "type": "tuple"
        }
      ],
      "stateMutability": "view",
      "type": "function",
      "constant": true
    }
  ],
  "bytecode": "0x6080604052670de0b6b3a7640000600655600560075560006008553480156200002757600080fd5b5060405162003e7738038062003e7783398181016040528101906200004d919062000935565b8282816000908162000060919062000c10565b50806001908162000072919062000c10565b5050508060068190555060096040518061010001604052806040518060400160405280600981526020017f436974792048616c6c00000000000000000000000000000000000000000000008152508152602001600073ffffffffffffffffffffffffffffffffffffffff168152602001600081526020016000815260200160008152602001600a8152602001600a8152602001600a815250908060018154018082558091505060019003906000526020600020906008020160009091909190915060008201518160000190816200014a919062000c10565b5060208201518160010160006101000a81548173ffffffffffffffffffffffffffffffffffffffff021916908373ffffffffffffffffffffffffffffffffffffffff16021790555060408201518160020155606082015181600301556080820151816004015560a0820151816005015560c0820151816006015560e08201518160070155505060096040518061010001604052806040518060400160405280600781526020017f5374616469756d000000000000000000000000000000000000000000000000008152508152602001600073ffffffffffffffffffffffffffffffffffffffff16815260200160008152602001600a815260200160008152602001600a8152602001600581526020016003815250908060018154018082558091505060019003906000526020600020906008020160009091909190915060008201518160000190816200029e919062000c10565b5060208201518160010160006101000a81548173ffffffffffffffffffffffffffffffffffffffff021916908373ffffffffffffffffffffffffffffffffffffffff16021790555060408201518160020155606082015181600301556080820151816004015560a0820151816005015560c0820151816006015560e08201518160070155505060096040518061010001604052806040518060400160405280600a81526020017f556e6976657273697479000000000000000000000000000000000000000000008152508152602001600073ffffffffffffffffffffffffffffffffffffffff168152602001600081526020017ffffffffffffffffffffffffffffffffffffffffffffffffffffffffffffffff6815260200160008152602001600a81526020016005815260200160038152509080600181540180825580915050600190039060005260206000209060080201600090919091909150600082015181600001908162000411919062000c10565b5060208201518160010160006101000a81548173ffffffffffffffffffffffffffffffffffffffff021916908373ffffffffffffffffffffffffffffffffffffffff16021790555060408201518160020155606082015181600301556080820151816004015560a0820151816005015560c0820151816006015560e08201518160070155505060096040518061010001604052806040518060400160405280601081526020017f53686f7070696e6720506c617a612031000000000000000000000000000000008152508152602001600073ffffffffffffffffffffffffffffffffffffffff168152602001600a81526020016000815260200160008152602001600581526020016019815260200160058152509080600181540180825580915050600190039060005260206000209060080201600090919091909150600082015181600001908162000565919062000c10565b5060208201518160010160006101000a81548173ffffffffffffffffffffffffffffffffffffffff021916908373ffffffffffffffffffffffffffffffffffffffff16021790555060408201518160020155606082015181600301556080820151816004015560a0820151816005015560c0820151816006015560e08201518160070155505060096040518061010001604052806040518060400160405280601081526020017f53686f7070696e6720506c617a612032000000000000000000000000000000008152508152602001600073ffffffffffffffffffffffffffffffffffffffff1681526020017ffffffffffffffffffffffffffffffffffffffffffffffffffffffffffffffff6815260200160008152602001600081526020016005815260200160198152602001600581525090806001815401808255809150506001900390600052602060002090600802016000909190919091506000820151816000019081620006d8919062000c10565b5060208201518160010160006101000a81548173ffffffffffffffffffffffffffffffffffffffff021916908373ffffffffffffffffffffffffffffffffffffffff16021790555060408201518160020155606082015181600301556080820151816004015560a0820151816005015560c0820151816006015560e08201518160070155505050505062000cf7565b6000604051905090565b600080fd5b600080fd5b600080fd5b600080fd5b6000601f19601f8301169050919050565b7f4e487b7100000000000000000000000000000000000000000000000000000000600052604160045260246000fd5b620007d08262000785565b810181811067ffffffffffffffff82111715620007f257620007f162000796565b5b80604052505050565b60006200080762000767565b9050620008158282620007c5565b919050565b600067ffffffffffffffff82111562000838576200083762000796565b5b620008438262000785565b9050602081019050919050565b60005b838110156200087057808201518184015260208101905062000853565b60008484015250505050565b6000620008936200088d846200081a565b620007fb565b905082815260208101848484011115620008b257620008b162000780565b5b620008bf84828562000850565b509392505050565b600082601f830112620008df57620008de6200077b565b5b8151620008f18482602086016200087c565b91505092915050565b6000819050919050565b6200090f81620008fa565b81146200091b57600080fd5b50565b6000815190506200092f8162000904565b92915050565b60008060006060848603121562000951576200095062000771565b5b600084015167ffffffffffffffff81111562000972576200097162000776565b5b6200098086828701620008c7565b935050602084015167ffffffffffffffff811115620009a457620009a362000776565b5b620009b286828701620008c7565b9250506040620009c5868287016200091e565b9150509250925092565b600081519050919050565b7f4e487b7100000000000000000000000000000000000000000000000000000000600052602260045260246000fd5b6000600282049050600182168062000a2257607f821691505b60208210810362000a385762000a37620009da565b5b50919050565b60008190508160005260206000209050919050565b60006020601f8301049050919050565b600082821b905092915050565b60006008830262000aa27fffffffffffffffffffffffffffffffffffffffffffffffffffffffffffffffff8262000a63565b62000aae868362000a63565b95508019841693508086168417925050509392505050565b6000819050919050565b600062000af162000aeb62000ae584620008fa565b62000ac6565b620008fa565b9050919050565b6000819050919050565b62000b0d8362000ad0565b62000b2562000b1c8262000af8565b84845462000a70565b825550505050565b600090565b62000b3c62000b2d565b62000b4981848462000b02565b505050565b5b8181101562000b715762000b6560008262000b32565b60018101905062000b4f565b5050565b601f82111562000bc05762000b8a8162000a3e565b62000b958462000a53565b8101602085101562000ba5578190505b62000bbd62000bb48562000a53565b83018262000b4e565b50505b505050565b600082821c905092915050565b600062000be56000198460080262000bc5565b1980831691505092915050565b600062000c00838362000bd2565b9150826002028217905092915050565b62000c1b82620009cf565b67ffffffffffffffff81111562000c375762000c3662000796565b5b62000c43825462000a09565b62000c5082828562000b75565b600060209050601f83116001811462000c88576000841562000c73578287015190505b62000c7f858262000bf2565b86555062000cef565b601f19841662000c988662000a3e565b60005b8281101562000cc25784890151825560018201915060208501945060208101905062000c9b565b8683101562000ce2578489015162000cde601f89168262000bd2565b8355505b6001600288020188555050505b505050505050565b6131708062000d076000396000f3fe60806040526004361061011f5760003560e01c806370a08231116100a0578063c87b56dd11610064578063c87b56dd146103f1578063cc1850901461042e578063d5abeb011461046b578063d9cf6a2614610496578063e985e9c5146104c15761011f565b806370a082311461031b57806395d89b4114610358578063a0712d6814610383578063a22cb4651461039f578063b88d4fde146103c85761011f565b806318160ddd116100e757806318160ddd1461021d57806323b872dd1461024857806342842e0e146102715780634c96a0621461029a5780636352211e146102de5761011f565b806301ffc9a71461012457806306fdde0314610161578063081812fc1461018c578063095ea7b3146101c957806313faede6146101f2575b600080fd5b34801561013057600080fd5b5061014b60048036038101906101469190611eda565b6104fe565b6040516101589190611f22565b60405180910390f35b34801561016d57600080fd5b506101766105e0565b6040516101839190611fcd565b60405180910390f35b34801561019857600080fd5b506101b360048036038101906101ae9190612025565b610672565b6040516101c09190612093565b60405180910390f35b3480156101d557600080fd5b506101f060048036038101906101eb91906120da565b6106b8565b005b3480156101fe57600080fd5b506102076107cf565b6040516102149190612129565b60405180910390f35b34801561022957600080fd5b506102326107d5565b60405161023f9190612129565b60405180910390f35b34801561025457600080fd5b5061026f600480360381019061026a9190612144565b6107db565b005b34801561027d57600080fd5b5061029860048036038101906102939190612144565b6108ab565b005b3480156102a657600080fd5b506102c160048036038101906102bc9190612025565b6108cb565b6040516102d59897969594939291906121b0565b60405180910390f35b3480156102ea57600080fd5b5061030560048036038101906103009190612025565b6109cb565b6040516103129190612093565b60405180910390f35b34801561032757600080fd5b50610342600480360381019061033d9190612235565b610a7c565b60405161034f9190612129565b60405180910390f35b34801561036457600080fd5b5061036d610b33565b60405161037a9190611fcd565b60405180910390f35b61039d60048036038101906103989190612025565b610bc5565b005b3480156103ab57600080fd5b506103c660048036038101906103c1919061228e565b610d0d565b005b3480156103d457600080fd5b506103ef60048036038101906103ea9190612403565b610d23565b005b3480156103fd57600080fd5b5061041860048036038101906104139190612025565b610df5565b6040516104259190611fcd565b60405180910390f35b34801561043a57600080fd5b50610455600480360381019061045091906124c5565b610e5d565b6040516104629190612619565b60405180910390f35b34801561047757600080fd5b50610480610fd3565b60405161048d9190612129565b60405180910390f35b3480156104a257600080fd5b506104ab610fd9565b6040516104b891906127ad565b60405180910390f35b3480156104cd57600080fd5b506104e860048036038101906104e391906127cf565b61115d565b6040516104f59190611f22565b60405180910390f35b60007f80ac58cd000000000000000000000000000000000000000000000000000000007bffffffffffffffffffffffffffffffffffffffffffffffffffffffff1916827bffffffffffffffffffffffffffffffffffffffffffffffffffffffff191614806105c957507f5b5e139f000000000000000000000000000000000000000000000000000000007bffffffffffffffffffffffffffffffffffffffffffffffffffffffff1916827bffffffffffffffffffffffffffffffffffffffffffffffffffffffff1916145b806105d957506105d8826111f1565b5b9050919050565b6060600080546105ef9061283e565b80601f016020809104026020016040519081016040528092919081815260200182805461061b9061283e565b80156106685780601f1061063d57610100808354040283529160200191610668565b820191906000526020600020905b81548152906001019060200180831161064b57829003601f168201915b5050505050905090565b600061067d8261125b565b6004600083815260200190815260200160002060009054906101000a900473ffffffffffffffffffffffffffffffffffffffff169050919050565b60006106c3826109cb565b90508073ffffffffffffffffffffffffffffffffffffffff168373ffffffffffffffffffffffffffffffffffffffff1603610733576040517f08c379a000000000000000000000000000000000000000000000000000000000815260040161072a906128e1565b60405180910390fd5b8073ffffffffffffffffffffffffffffffffffffffff166107526112a6565b73ffffffffffffffffffffffffffffffffffffffff16148061078157506107808161077b6112a6565b61115d565b5b6107c0576040517f08c379a00000000000000000000000000000000000000000000000000000000081526004016107b790612973565b60405180910390fd5b6107ca83836112ae565b505050565b60065481565b60085481565b6107ec6107e66112a6565b82611367565b61082b576040517f08c379a000000000000000000000000000000000000000000000000000000000815260040161082290612a05565b60405180910390fd5b81600960018361083b9190612a54565b8154811061084c5761084b612a88565b5b906000526020600020906008020160010160006101000a81548173ffffffffffffffffffffffffffffffffffffffff021916908373ffffffffffffffffffffffffffffffffffffffff1602179055506108a68383836113fc565b505050565b6108c683838360405180602001604052806000815250610d23565b505050565b600981815481106108db57600080fd5b90600052602060002090600802016000915090508060000180546108fe9061283e565b80601f016020809104026020016040519081016040528092919081815260200182805461092a9061283e565b80156109775780601f1061094c57610100808354040283529160200191610977565b820191906000526020600020905b81548152906001019060200180831161095a57829003601f168201915b5050505050908060010160009054906101000a900473ffffffffffffffffffffffffffffffffffffffff16908060020154908060030154908060040154908060050154908060060154908060070154905088565b6000806002600084815260200190815260200160002060009054906101000a900473ffffffffffffffffffffffffffffffffffffffff169050600073ffffffffffffffffffffffffffffffffffffffff168173ffffffffffffffffffffffffffffffffffffffff1603610a73576040517f08c379a0000000000000000000000000000000000000000000000000000000008152600401610a6a90612b03565b60405180910390fd5b80915050919050565b60008073ffffffffffffffffffffffffffffffffffffffff168273ffffffffffffffffffffffffffffffffffffffff1603610aec576040517f08c379a0000000000000000000000000000000000000000000000000000000008152600401610ae390612b95565b60405180910390fd5b600360008373ffffffffffffffffffffffffffffffffffffffff1673ffffffffffffffffffffffffffffffffffffffff168152602001908152602001600020549050919050565b606060018054610b429061283e565b80601f0160208091040260200160405190810160405280929190818152602001828054610b6e9061283e565b8015610bbb5780601f10610b9057610100808354040283529160200191610bbb565b820191906000526020600020905b815481529060010190602001808311610b9e57829003601f168201915b5050505050905090565b60006008549050600754811115610bdb57600080fd5b600073ffffffffffffffffffffffffffffffffffffffff166009600184610c029190612a54565b81548110610c1357610c12612a88565b5b906000526020600020906008020160010160009054906101000a900473ffffffffffffffffffffffffffffffffffffffff1673ffffffffffffffffffffffffffffffffffffffff1614610c6557600080fd5b670de0b6b3a7640000341015610c7a57600080fd5b336009600184610c8a9190612a54565b81548110610c9b57610c9a612a88565b5b906000526020600020906008020160010160006101000a81548173ffffffffffffffffffffffffffffffffffffffff021916908373ffffffffffffffffffffffffffffffffffffffff1602179055506001600854610cf99190612bb5565b600881905550610d093383611662565b5050565b610d1f610d186112a6565b8383611680565b5050565b610d34610d2e6112a6565b83611367565b610d73576040517f08c379a0000000000000000000000000000000000000000000000000000000008152600401610d6a90612a05565b60405180910390fd5b826009600184610d839190612a54565b81548110610d9457610d93612a88565b5b906000526020600020906008020160010160006101000a81548173ffffffffffffffffffffffffffffffffffffffff021916908373ffffffffffffffffffffffffffffffffffffffff160217905550610def848484846117ec565b50505050565b6060610e008261125b565b6000610e0a611848565b90506000815111610e2a5760405180602001604052806000815250610e55565b80610e348461185f565b604051602001610e45929190612c25565b6040516020818303038152906040525b915050919050565b610e65611e13565b6009600183610e749190612c49565b66ffffffffffffff1681548110610e8e57610e8d612a88565b5b906000526020600020906008020160405180610100016040529081600082018054610eb89061283e565b80601f0160208091040260200160405190810160405280929190818152602001828054610ee49061283e565b8015610f315780601f10610f0657610100808354040283529160200191610f31565b820191906000526020600020905b815481529060010190602001808311610f1457829003601f168201915b505050505081526020016001820160009054906101000a900473ffffffffffffffffffffffffffffffffffffffff1673ffffffffffffffffffffffffffffffffffffffff1673ffffffffffffffffffffffffffffffffffffffff16815260200160028201548152602001600382015481526020016004820154815260200160058201548152602001600682015481526020016007820154815250509050919050565b60075481565b60606009805480602002602001604051908101604052809291908181526020016000905b828210156111545783829060005260206000209060080201604051806101000160405290816000820180546110319061283e565b80601f016020809104026020016040519081016040528092919081815260200182805461105d9061283e565b80156110aa5780601f1061107f576101008083540402835291602001916110aa565b820191906000526020600020905b81548152906001019060200180831161108d57829003601f168201915b505050505081526020016001820160009054906101000a900473ffffffffffffffffffffffffffffffffffffffff1673ffffffffffffffffffffffffffffffffffffffff1673ffffffffffffffffffffffffffffffffffffffff168152602001600282015481526020016003820154815260200160048201548152602001600582015481526020016006820154815260200160078201548152505081526020019060010190610ffd565b50505050905090565b6000600560008473ffffffffffffffffffffffffffffffffffffffff1673ffffffffffffffffffffffffffffffffffffffff16815260200190815260200160002060008373ffffffffffffffffffffffffffffffffffffffff1673ffffffffffffffffffffffffffffffffffffffff16815260200190815260200160002060009054906101000a900460ff16905092915050565b60007f01ffc9a7000000000000000000000000000000000000000000000000000000007bffffffffffffffffffffffffffffffffffffffffffffffffffffffff1916827bffffffffffffffffffffffffffffffffffffffffffffffffffffffff1916149050919050565b611264816119bf565b6112a3576040517f08c379a000000000000000000000000000000000000000000000000000000000815260040161129a90612b03565b60405180910390fd5b50565b600033905090565b816004600083815260200190815260200160002060006101000a81548173ffffffffffffffffffffffffffffffffffffffff021916908373ffffffffffffffffffffffffffffffffffffffff160217905550808273ffffffffffffffffffffffffffffffffffffffff16611321836109cb565b73ffffffffffffffffffffffffffffffffffffffff167f8c5be1e5ebec7d5bd14f71427d1e84f3dd0314c0f7b2291e5b200ac8c7c3b92560405160405180910390a45050565b600080611373836109cb565b90508073ffffffffffffffffffffffffffffffffffffffff168473ffffffffffffffffffffffffffffffffffffffff1614806113b557506113b4818561115d565b5b806113f357508373ffffffffffffffffffffffffffffffffffffffff166113db84610672565b73ffffffffffffffffffffffffffffffffffffffff16145b91505092915050565b8273ffffffffffffffffffffffffffffffffffffffff1661141c826109cb565b73ffffffffffffffffffffffffffffffffffffffff1614611472576040517f08c379a000000000000000000000000000000000000000000000000000000000815260040161146990612cf6565b60405180910390fd5b600073ffffffffffffffffffffffffffffffffffffffff168273ffffffffffffffffffffffffffffffffffffffff16036114e1576040517f08c379a00000000000000000000000000000000000000000000000000000000081526004016114d890612d88565b60405180910390fd5b6114ec838383611a2b565b6114f76000826112ae565b6001600360008573ffffffffffffffffffffffffffffffffffffffff1673ffffffffffffffffffffffffffffffffffffffff16815260200190815260200160002060008282546115479190612a54565b925050819055506001600360008473ffffffffffffffffffffffffffffffffffffffff1673ffffffffffffffffffffffffffffffffffffffff168152602001908152602001600020600082825461159e9190612bb5565b92505081905550816002600083815260200190815260200160002060006101000a81548173ffffffffffffffffffffffffffffffffffffffff021916908373ffffffffffffffffffffffffffffffffffffffff160217905550808273ffffffffffffffffffffffffffffffffffffffff168473ffffffffffffffffffffffffffffffffffffffff167fddf252ad1be2c89b69c2b068fc378daa952ba7f163c4a11628f55a4df523b3ef60405160405180910390a461165d838383611a30565b505050565b61167c828260405180602001604052806000815250611a35565b5050565b8173ffffffffffffffffffffffffffffffffffffffff168373ffffffffffffffffffffffffffffffffffffffff16036116ee576040517f08c379a00000000000000000000000000000000000000000000000000000000081526004016116e590612df4565b60405180910390fd5b80600560008573ffffffffffffffffffffffffffffffffffffffff1673ffffffffffffffffffffffffffffffffffffffff16815260200190815260200160002060008473ffffffffffffffffffffffffffffffffffffffff1673ffffffffffffffffffffffffffffffffffffffff16815260200190815260200160002060006101000a81548160ff0219169083151502179055508173ffffffffffffffffffffffffffffffffffffffff168373ffffffffffffffffffffffffffffffffffffffff167f17307eab39ab6107e8899845ad3d59bd9653f200f220920489ca2b5937696c31836040516117df9190611f22565b60405180910390a3505050565b6117f78484846113fc565b61180384848484611a90565b611842576040517f08c379a000000000000000000000000000000000000000000000000000000000815260040161183990612e86565b60405180910390fd5b50505050565b606060405180602001604052806000815250905090565b6060600082036118a6576040518060400160405280600181526020017f300000000000000000000000000000000000000000000000000000000000000081525090506119ba565b600082905060005b600082146118d85780806118c190612ea6565b915050600a826118d19190612f1d565b91506118ae565b60008167ffffffffffffffff8111156118f4576118f36122d8565b5b6040519080825280601f01601f1916602001820160405280156119265781602001600182028036833780820191505090505b5090505b600085146119b35760018261193f9190612a54565b9150600a8561194e9190612f4e565b603061195a9190612bb5565b60f81b8183815181106119705761196f612a88565b5b60200101907effffffffffffffffffffffffffffffffffffffffffffffffffffffffffffff1916908160001a905350600a856119ac9190612f1d565b945061192a565b8093505050505b919050565b60008073ffffffffffffffffffffffffffffffffffffffff166002600084815260200190815260200160002060009054906101000a900473ffffffffffffffffffffffffffffffffffffffff1673ffffffffffffffffffffffffffffffffffffffff1614159050919050565b505050565b505050565b611a3f8383611c17565b611a4c6000848484611a90565b611a8b576040517f08c379a0000000000000000000000000000000000000000000000000000000008152600401611a8290612e86565b60405180910390fd5b505050565b6000611ab18473ffffffffffffffffffffffffffffffffffffffff16611df0565b15611c0a578373ffffffffffffffffffffffffffffffffffffffff1663150b7a02611ada6112a6565b8786866040518563ffffffff1660e01b8152600401611afc9493929190612fd4565b6020604051808303816000875af1925050508015611b3857506040513d601f19601f82011682018060405250810190611b359190613035565b60015b611bba573d8060008114611b68576040519150601f19603f3d011682016040523d82523d6000602084013e611b6d565b606091505b506000815103611bb2576040517f08c379a0000000000000000000000000000000000000000000000000000000008152600401611ba990612e86565b60405180910390fd5b805181602001fd5b63150b7a0260e01b7bffffffffffffffffffffffffffffffffffffffffffffffffffffffff1916817bffffffffffffffffffffffffffffffffffffffffffffffffffffffff191614915050611c0f565b600190505b949350505050565b600073ffffffffffffffffffffffffffffffffffffffff168273ffffffffffffffffffffffffffffffffffffffff1603611c86576040517f08c379a0000000000000000000000000000000000000000000000000000000008152600401611c7d906130ae565b60405180910390fd5b611c8f816119bf565b15611ccf576040517f08c379a0000000000000000000000000000000000000000000000000000000008152600401611cc69061311a565b60405180910390fd5b611cdb60008383611a2b565b6001600360008473ffffffffffffffffffffffffffffffffffffffff1673ffffffffffffffffffffffffffffffffffffffff1681526020019081526020016000206000828254611d2b9190612bb5565b92505081905550816002600083815260200190815260200160002060006101000a81548173ffffffffffffffffffffffffffffffffffffffff021916908373ffffffffffffffffffffffffffffffffffffffff160217905550808273ffffffffffffffffffffffffffffffffffffffff16600073ffffffffffffffffffffffffffffffffffffffff167fddf252ad1be2c89b69c2b068fc378daa952ba7f163c4a11628f55a4df523b3ef60405160405180910390a4611dec60008383611a30565b5050565b6000808273ffffffffffffffffffffffffffffffffffffffff163b119050919050565b60405180610100016040528060608152602001600073ffffffffffffffffffffffffffffffffffffffff1681526020016000815260200160008152602001600081526020016000815260200160008152602001600081525090565b6000604051905090565b600080fd5b600080fd5b60007fffffffff0000000000000000000000000000000000000000000000000000000082169050919050565b611eb781611e82565b8114611ec257600080fd5b50565b600081359050611ed481611eae565b92915050565b600060208284031215611ef057611eef611e78565b5b6000611efe84828501611ec5565b91505092915050565b60008115159050919050565b611f1c81611f07565b82525050565b6000602082019050611f376000830184611f13565b92915050565b600081519050919050565b600082825260208201905092915050565b60005b83811015611f77578082015181840152602081019050611f5c565b60008484015250505050565b6000601f19601f8301169050919050565b6000611f9f82611f3d565b611fa98185611f48565b9350611fb9818560208601611f59565b611fc281611f83565b840191505092915050565b60006020820190508181036000830152611fe78184611f94565b905092915050565b6000819050919050565b61200281611fef565b811461200d57600080fd5b50565b60008135905061201f81611ff9565b92915050565b60006020828403121561203b5761203a611e78565b5b600061204984828501612010565b91505092915050565b600073ffffffffffffffffffffffffffffffffffffffff82169050919050565b600061207d82612052565b9050919050565b61208d81612072565b82525050565b60006020820190506120a86000830184612084565b92915050565b6120b781612072565b81146120c257600080fd5b50565b6000813590506120d4816120ae565b92915050565b600080604083850312156120f1576120f0611e78565b5b60006120ff858286016120c5565b925050602061211085828601612010565b9150509250929050565b61212381611fef565b82525050565b600060208201905061213e600083018461211a565b92915050565b60008060006060848603121561215d5761215c611e78565b5b600061216b868287016120c5565b935050602061217c868287016120c5565b925050604061218d86828701612010565b9150509250925092565b6000819050919050565b6121aa81612197565b82525050565b60006101008201905081810360008301526121cb818b611f94565b90506121da602083018a612084565b6121e760408301896121a1565b6121f460608301886121a1565b61220160808301876121a1565b61220e60a083018661211a565b61221b60c083018561211a565b61222860e083018461211a565b9998505050505050505050565b60006020828403121561224b5761224a611e78565b5b6000612259848285016120c5565b91505092915050565b61226b81611f07565b811461227657600080fd5b50565b60008135905061228881612262565b92915050565b600080604083850312156122a5576122a4611e78565b5b60006122b3858286016120c5565b92505060206122c485828601612279565b9150509250929050565b600080fd5b600080fd5b7f4e487b7100000000000000000000000000000000000000000000000000000000600052604160045260246000fd5b61231082611f83565b810181811067ffffffffffffffff8211171561232f5761232e6122d8565b5b80604052505050565b6000612342611e6e565b905061234e8282612307565b919050565b600067ffffffffffffffff82111561236e5761236d6122d8565b5b61237782611f83565b9050602081019050919050565b82818337600083830152505050565b60006123a66123a184612353565b612338565b9050828152602081018484840111156123c2576123c16122d3565b5b6123cd848285612384565b509392505050565b600082601f8301126123ea576123e96122ce565b5b81356123fa848260208601612393565b91505092915050565b6000806000806080858703121561241d5761241c611e78565b5b600061242b878288016120c5565b945050602061243c878288016120c5565b935050604061244d87828801612010565b925050606085013567ffffffffffffffff81111561246e5761246d611e7d565b5b61247a878288016123d5565b91505092959194509250565b600066ffffffffffffff82169050919050565b6124a281612486565b81146124ad57600080fd5b50565b6000813590506124bf81612499565b92915050565b6000602082840312156124db576124da611e78565b5b60006124e9848285016124b0565b91505092915050565b600082825260208201905092915050565b600061250e82611f3d565b61251881856124f2565b9350612528818560208601611f59565b61253181611f83565b840191505092915050565b61254581612072565b82525050565b61255481612197565b82525050565b61256381611fef565b82525050565b60006101008301600083015184820360008601526125878282612503565b915050602083015161259c602086018261253c565b5060408301516125af604086018261254b565b5060608301516125c2606086018261254b565b5060808301516125d5608086018261254b565b5060a08301516125e860a086018261255a565b5060c08301516125fb60c086018261255a565b5060e083015161260e60e086018261255a565b508091505092915050565b600060208201905081810360008301526126338184612569565b905092915050565b600081519050919050565b600082825260208201905092915050565b6000819050602082019050919050565b60006101008301600083015184820360008601526126858282612503565b915050602083015161269a602086018261253c565b5060408301516126ad604086018261254b565b5060608301516126c0606086018261254b565b5060808301516126d3608086018261254b565b5060a08301516126e660a086018261255a565b5060c08301516126f960c086018261255a565b5060e083015161270c60e086018261255a565b508091505092915050565b60006127238383612667565b905092915050565b6000602082019050919050565b60006127438261263b565b61274d8185612646565b93508360208202850161275f85612657565b8060005b8581101561279b578484038952815161277c8582612717565b94506127878361272b565b925060208a01995050600181019050612763565b50829750879550505050505092915050565b600060208201905081810360008301526127c78184612738565b905092915050565b600080604083850312156127e6576127e5611e78565b5b60006127f4858286016120c5565b9250506020612805858286016120c5565b9150509250929050565b7f4e487b7100000000000000000000000000000000000000000000000000000000600052602260045260246000fd5b6000600282049050600182168061285657607f821691505b6020821081036128695761286861280f565b5b50919050565b7f4552433732313a20617070726f76616c20746f2063757272656e74206f776e6560008201527f7200000000000000000000000000000000000000000000000000000000000000602082015250565b60006128cb602183611f48565b91506128d68261286f565b604082019050919050565b600060208201905081810360008301526128fa816128be565b9050919050565b7f4552433732313a20617070726f76652063616c6c6572206973206e6f7420746f60008201527f6b656e206f776e6572206e6f7220617070726f76656420666f7220616c6c0000602082015250565b600061295d603e83611f48565b915061296882612901565b604082019050919050565b6000602082019050818103600083015261298c81612950565b9050919050565b7f4552433732313a207472616e736665722063616c6c6572206973206e6f74206f60008201527f776e6572206e6f7220617070726f766564000000000000000000000000000000602082015250565b60006129ef603183611f48565b91506129fa82612993565b604082019050919050565b60006020820190508181036000830152612a1e816129e2565b9050919050565b7f4e487b7100000000000000000000000000000000000000000000000000000000600052601160045260246000fd5b6000612a5f82611fef565b9150612a6a83611fef565b9250828203905081811115612a8257612a81612a25565b5b92915050565b7f4e487b7100000000000000000000000000000000000000000000000000000000600052603260045260246000fd5b7f4552433732313a20696e76616c696420746f6b656e2049440000000000000000600082015250565b6000612aed601883611f48565b9150612af882612ab7565b602082019050919050565b60006020820190508181036000830152612b1c81612ae0565b9050919050565b7f4552433732313a2061646472657373207a65726f206973206e6f74206120766160008201527f6c6964206f776e65720000000000000000000000000000000000000000000000602082015250565b6000612b7f602983611f48565b9150612b8a82612b23565b604082019050919050565b60006020820190508181036000830152612bae81612b72565b9050919050565b6000612bc082611fef565b9150612bcb83611fef565b9250828201905080821115612be357612be2612a25565b5b92915050565b600081905092915050565b6000612bff82611f3d565b612c098185612be9565b9350612c19818560208601611f59565b80840191505092915050565b6000612c318285612bf4565b9150612c3d8284612bf4565b91508190509392505050565b6000612c5482612486565b9150612c5f83612486565b9250828203905066ffffffffffffff811115612c7e57612c7d612a25565b5b92915050565b7f4552433732313a207472616e736665722066726f6d20696e636f72726563742060008201527f6f776e6572000000000000000000000000000000000000000000000000000000602082015250565b6000612ce0602583611f48565b9150612ceb82612c84565b604082019050919050565b60006020820190508181036000830152612d0f81612cd3565b9050919050565b7f4552433732313a207472616e7366657220746f20746865207a65726f2061646460008201527f7265737300000000000000000000000000000000000000000000000000000000602082015250565b6000612d72602483611f48565b9150612d7d82612d16565b604082019050919050565b60006020820190508181036000830152612da181612d65565b9050919050565b7f4552433732313a20617070726f766520746f2063616c6c657200000000000000600082015250565b6000612dde601983611f48565b9150612de982612da8565b602082019050919050565b60006020820190508181036000830152612e0d81612dd1565b9050919050565b7f4552433732313a207472616e7366657220746f206e6f6e20455243373231526560008201527f63656976657220696d706c656d656e7465720000000000000000000000000000602082015250565b6000612e70603283611f48565b9150612e7b82612e14565b604082019050919050565b60006020820190508181036000830152612e9f81612e63565b9050919050565b6000612eb182611fef565b91507fffffffffffffffffffffffffffffffffffffffffffffffffffffffffffffffff8203612ee357612ee2612a25565b5b600182019050919050565b7f4e487b7100000000000000000000000000000000000000000000000000000000600052601260045260246000fd5b6000612f2882611fef565b9150612f3383611fef565b925082612f4357612f42612eee565b5b828204905092915050565b6000612f5982611fef565b9150612f6483611fef565b925082612f7457612f73612eee565b5b828206905092915050565b600081519050919050565b600082825260208201905092915050565b6000612fa682612f7f565b612fb08185612f8a565b9350612fc0818560208601611f59565b612fc981611f83565b840191505092915050565b6000608082019050612fe96000830187612084565b612ff66020830186612084565b613003604083018561211a565b81810360608301526130158184612f9b565b905095945050505050565b60008151905061302f81611eae565b92915050565b60006020828403121561304b5761304a611e78565b5b600061305984828501613020565b91505092915050565b7f4552433732313a206d696e7420746f20746865207a65726f2061646472657373600082015250565b6000613098602083611f48565b91506130a382613062565b602082019050919050565b600060208201905081810360008301526130c78161308b565b9050919050565b7f4552433732313a20746f6b656e20616c7265616479206d696e74656400000000600082015250565b6000613104601c83611f48565b915061310f826130ce565b602082019050919050565b60006020820190508181036000830152613133816130f7565b905091905056fea2646970667358221220820543e59f3641f7f8c40390e269df70a038bfbb64180f6ff170235c6564f84764736f6c63430008100033",
  "immutableReferences": {},
  "source": "//SPDX-License-Identifier: UNLICENSED\r\n pragma solidity ^0.8.0;\r\n\r\nimport \"@openzeppelin/contracts/token/ERC721/ERC721.sol\";\r\n\r\ncontract Land is ERC721{\r\n\r\n    uint256 public cost = 1 ether; \r\n    uint256 public maxSupply = 5;\r\n    uint256 public totalSupply = 0;\r\n\r\n    struct Building {\r\n        string name;\r\n        address owner;\r\n        int256 posX;\r\n        int256 posY;\r\n        int256 posZ;\r\n        uint256 sizeX;\r\n        uint256 sizeY;\r\n        uint256 sizeZ;\r\n    }\r\n\r\n    Building[] public buildings;\r\n\r\n    constructor( string memory _name, string memory _symbol, uint256 _cost) ERC721 (_name, _symbol){\r\n        cost= _cost;\r\n        buildings.push(\r\n            Building(\"City Hall\",address(0x0),0,0,0,10,10,10)\r\n        );\r\n\r\n        buildings.push(\r\n                        Building(\"Stadium\",address(0x0),0,10,0,10,5,3)\r\n        );\r\n         buildings.push(\r\n                        Building(\"University\",address(0x0),0,-10,0,10,5,3)\r\n        );\r\n         buildings.push(\r\n                        Building(\"Shopping Plaza 1\",address(0x0),10,0,0,5,25,5)\r\n        );\r\n         buildings.push(\r\n                        Building(\"Shopping Plaza 2\",address(0x0),-10,0,0,5,25,5)\r\n        );\r\n    }\r\n\r\n    function mint(uint256 _id) public payable{\r\n        uint256 supply = totalSupply;\r\n        require(supply <= maxSupply);\r\n        require(buildings[_id - 1].owner == address(0x0));\r\n        require(msg.value >= 1 ether);\r\n\r\n        buildings[_id - 1].owner = msg.sender;\r\n        totalSupply = totalSupply + 1;\r\n        _safeMint(msg.sender, _id);\r\n    }\r\n\r\n     function transferFrom(\r\n        address from,\r\n        address to,\r\n        uint256 tokenId\r\n    ) public override {\r\n        require(\r\n            _isApprovedOrOwner(_msgSender(), tokenId),\r\n            \"ERC721: transfer caller is not owner nor approved\"\r\n        );\r\n\r\n        // Update Building ownership\r\n        buildings[tokenId - 1].owner = to;\r\n\r\n        _transfer(from, to, tokenId);\r\n    }\r\n\r\n    function safeTransferFrom( address from,address  to,uint256 tokenId, bytes memory _data) public override {\r\n        require(\r\n            _isApprovedOrOwner(_msgSender(), tokenId),\r\n            \"ERC721: transfer caller is not owner nor approved\"\r\n        );\r\n\r\n        buildings[tokenId - 1].owner = to;\r\n        _safeTransfer(from, to, tokenId,_data);\r\n    }\r\n\r\n    function getBuildings() public view returns(Building[] memory){\r\n        return buildings;\r\n    }\r\n\r\n    function getBuilding( uint56 _id) public view returns (Building memory){\r\n        return buildings[_id - 1];\r\n    }\r\n}",
  "sourcePath": "E:\\git\\metaverse-tutorial\\metaverse\\src\\contracts\\Land.sol",
  "compiler": {
    "name": "solc",
    "version": "0.8.16+commit.07a7930e.Emscripten.clang"
  },
  "schemaVersion": "3.4.9",
  "updatedAt": "2022-08-13T09:10:58.508Z",
  "networkType": "ethereum",
  "devdoc": {
    "kind": "dev",
    "methods": {
      "approve(address,uint256)": {
        "details": "See {IERC721-approve}."
      },
      "balanceOf(address)": {
        "details": "See {IERC721-balanceOf}."
      },
      "getApproved(uint256)": {
        "details": "See {IERC721-getApproved}."
      },
      "isApprovedForAll(address,address)": {
        "details": "See {IERC721-isApprovedForAll}."
      },
      "name()": {
        "details": "See {IERC721Metadata-name}."
      },
      "ownerOf(uint256)": {
        "details": "See {IERC721-ownerOf}."
      },
      "safeTransferFrom(address,address,uint256)": {
        "details": "See {IERC721-safeTransferFrom}."
      },
      "setApprovalForAll(address,bool)": {
        "details": "See {IERC721-setApprovalForAll}."
      },
      "supportsInterface(bytes4)": {
        "details": "See {IERC165-supportsInterface}."
      },
      "symbol()": {
        "details": "See {IERC721Metadata-symbol}."
      },
      "tokenURI(uint256)": {
        "details": "See {IERC721Metadata-tokenURI}."
      },
      "transferFrom(address,address,uint256)": {
        "details": "See {IERC721-transferFrom}."
      }
    },
    "version": 1
  },
  "userdoc": {
    "kind": "user",
    "methods": {},
    "version": 1
  }
}